{
  "contractName": "Election",
  "abi": [
    {
      "constant": true,
      "inputs": [
        {
          "internalType": "uint256",
          "name": "",
          "type": "uint256"
        }
      ],
      "name": "voteList",
      "outputs": [
        {
          "internalType": "uint256",
          "name": "candidateCount",
          "type": "uint256"
        }
      ],
      "payable": false,
      "stateMutability": "view",
      "type": "function"
    },
    {
      "constant": true,
      "inputs": [
        {
          "internalType": "uint256",
          "name": "",
          "type": "uint256"
        },
        {
          "internalType": "address",
          "name": "",
          "type": "address"
        }
      ],
      "name": "voters",
      "outputs": [
        {
          "internalType": "bool",
          "name": "",
          "type": "bool"
        }
      ],
      "payable": false,
      "stateMutability": "view",
      "type": "function"
    },
    {
      "constant": false,
      "inputs": [
        {
          "internalType": "uint256",
          "name": "_voteCode",
          "type": "uint256"
        },
        {
          "internalType": "string",
          "name": "_name",
          "type": "string"
        }
      ],
      "name": "addCandidates",
      "outputs": [
        {
          "internalType": "bool",
          "name": "",
          "type": "bool"
        }
      ],
      "payable": false,
      "stateMutability": "nonpayable",
      "type": "function"
    },
    {
      "constant": false,
      "inputs": [
        {
          "internalType": "uint256",
          "name": "_voteCode",
          "type": "uint256"
        },
        {
          "internalType": "uint256",
          "name": "_candidateId",
          "type": "uint256"
        }
      ],
      "name": "vote",
      "outputs": [],
      "payable": false,
      "stateMutability": "nonpayable",
      "type": "function"
    }
  ],
  "bytecode": "0x608060405234801561001057600080fd5b50610552806100206000396000f3fe608060405234801561001057600080fd5b506004361061004c5760003560e01c80639e31906314610051578063a3989703146100b7578063b384abef146100f9578063c5b15a3e14610131575b600080fd5b61009d6004803603604081101561006757600080fd5b8101908080359060200190929190803573ffffffffffffffffffffffffffffffffffffffff16906020019092919050505061020e565b604051808215151515815260200191505060405180910390f35b6100e3600480360360208110156100cd57600080fd5b810190808035906020019092919050505061023d565b6040518082815260200191505060405180910390f35b61012f6004803603604081101561010f57600080fd5b81019080803590602001909291908035906020019092919050505061025b565b005b6101f46004803603604081101561014757600080fd5b81019080803590602001909291908035906020019064010000000081111561016e57600080fd5b82018360208201111561018057600080fd5b803590602001918460018302840111640100000000831117156101a257600080fd5b91908080601f016020809104026020016040519081016040528093929190818152602001838380828437600081840152601f19601f8201169050808301925050505050505091929192905050506103b4565b604051808215151515815260200191505060405180910390f35b60016020528160005260406000206020528060005260406000206000915091509054906101000a900460ff1681565b60006020528060005260406000206000915090508060000154905081565b6001600083815260200190815260200160002060003373ffffffffffffffffffffffffffffffffffffffff1673ffffffffffffffffffffffffffffffffffffffff16815260200190815260200160002060009054906101000a900460ff161561030f576040517f08c379a00000000000000000000000000000000000000000000000000000000081526004018080602001828103825260248152602001806104fa6024913960400191505060405180910390fd5b600180600084815260200190815260200160002060003373ffffffffffffffffffffffffffffffffffffffff1673ffffffffffffffffffffffffffffffffffffffff16815260200190815260200160002060006101000a81548160ff0219169083151502179055506000808381526020019081526020016000206001016000828152602001908152602001600020600201600081548092919060010191905055505050565b600080600080858152602001908152602001600020600001549050808060010191505060405180606001604052808281526020018481526020016000815250600080868152602001908152602001600020600101600083815260200190815260200160002060008201518160000155602082015181600101908051906020019061043f929190610454565b50604082015181600201559050505092915050565b828054600181600116156101000203166002900490600052602060002090601f016020900481019282601f1061049557805160ff19168380011785556104c3565b828001600101855582156104c3579182015b828111156104c25782518255916020019190600101906104a7565b5b5090506104d091906104d4565b5090565b6104f691905b808211156104f25760008160009055506001016104da565b5090565b9056feec9db4ebafb820ed88aced919ced959c20ed88aced919cec9e90ec9e85eb8b88eb8ba421a265627a7a72315820777c8dd07aa6a95ec204006bce450619120069fcf43033bf51fa44284dc388f364736f6c634300050c0032",
  "source": "pragma solidity ^0.5.11;\r\n\r\ncontract  Election {\r\n    struct Candidate {\r\n        uint idx;\r\n        string name;\r\n        uint voteCount;\r\n    }\r\n    struct CandidateByVote {\r\n        uint candidateCount;\r\n        mapping(uint=> Candidate) candidates;\r\n        }\r\n\r\n    mapping(uint=>CandidateByVote) public voteList;\r\n    mapping(uint=> mapping(address=>bool)) public voters;\r\n    \r\n    //mapping(address=> bool) public voters; // 이미 투표한 accounts 구분\r\n\r\n    function addCandidates(uint _voteCode, string memory _name) public returns(bool){\r\n        uint count = voteList[_voteCode].candidateCount;\r\n        count++;\r\n        voteList[_voteCode].candidates[count] = Candidate(count, _name, 0);\r\n    }\r\n\r\n    function vote(uint _voteCode,uint _candidateId) public {\r\n        require(!voters[_voteCode][msg.sender], \"이미 투표한 투표자입니다!\");\r\n        \r\n        //require(voters[_voteCode][_candidateId] >0 && _candidateId <= voteList[_voteCode].candidateCount,\"등록된 후보자에게 투표해야합니다.\");\r\n        voters[_voteCode][msg.sender] = true;\r\n        voteList[_voteCode].candidates[_candidateId].voteCount++;\r\n    }\r\n}",
  "sourcePath": "C:/Users/thwls/OneDrive/Desktop/최종/vote/capstone_october/contracts/Election.sol",
  "compiler": {
    "name": "solc",
    "version": "0.5.12+commit.7709ece9.Emscripten.clang"
  },
  "schemaVersion": "3.0.19",
  "updatedAt": "2019-11-26T09:55:24.810Z",
  "networkType": "ethereum",
  "devdoc": {
    "methods": {}
  },
  "userdoc": {
    "methods": {}
  }
}